:1000000008F8FF1F51040000CD040000CD040000DB
:1000100000000000000000000000000000000000E0
:10002000000000000000000000000000CD040000FF
:100030000000000000000000CD040000C10400002A
:10004000CD040000CD040000CD040000CD0400006C
:1000500000000000CD040000CD040000CD0400002D
:10006000CD040000CD040000CD040000CD0400004C
:10007000CD040000CD040000CD040000CD0400003C
:10008000CD040000CD040000CD040000CD0400002C
:10009000CD040000CD040000CD04000000000000ED
:1000A000CD040000CD040000CD040000CD0400000C
:1000B000CD04000000000000CD040000CD040000CD
:10040000FFFFFFFFFFFFFFFFFFFFFFFFFEFFFFFFFD
:1004100080B582B000AF78607A680B4B9A4201D900
:1004200001230CE0094B7A681202120A013A5A6061
:10043000064B00229A60054B07221A600023181C05
:10044000BD4602B080BDC046FFFFFF0010E000E0E7
:1004500080B582B000AF00F0E3F9134B7B60134B23
:100460003B6009E07B681A683B681A603B680433AC
:100470003B607B6804337B603A680D4B9A42F1D352
:100480000C4B3B6005E03B6800221A603B6804337C
:100490003B603A68084B9A42F5D3084B181CFFF7AB
:1004A000B7FF00F0B1F9FEE7B008000000F0FF1F51
:1004B00000F4FF1F00F4FF1F08F4FF1F80BB0000C3
:1004C00080B500AF00F0DEF9BD4680BD80B500AF5D
:1004D000FEE7C04680B584B000AF786000F0DEF97A
:1004E000031CFB60C04600F0D9F9021CFB68D21A5D
:1004F0007B689A42F7D3BD4604B080BD80B500AF9B
:100500000E4A88235B010021D1500C4A0B490C4B49
:10051000CB588021C9001943094BD150094B802287
:1005200052001A60084B01229A60074B064A526932
:1005300001210A435A61BD4680BDC0460070044097
:100540003810000000A0044040F00F4080B582B099
:1005500000AF021CFB1D1A70C046084BDB78DBB2F3
:100560001A1C20231340F8D0054B40229A60034BFD
:10057000FA1D12785A71BD4602B080BD0060074076
:10058000C0F00F4080B582B000AF021CFB1D1A7096
:10059000C046084BDB78DBB21A1C20231340F8D08E
:1005A000054B40225A60034BFA1D12785A71BD4622
:1005B00002B080BD00600740C0F00F4080B582B03F
:1005C00000AF794A7849794BCB588021090119430A
:1005D000764BD150744A7449744BCB5880214901F1
:1005E0001943724BD150724B80225200DA61714B29
:1005F00080229A606F4B6F4A526980210A435A6188
:100600006D4B802252001A616C4B10229A606B4B2A
:100610006A4A526910210A435A61674B802252008C
:100620005A61664B20229A60644B644A52692021C9
:100630000A435A61604B802252009A615F4B40220C
:100640009A605E4B5D4A526940210A435A61584B99
:10065000802292001A61564B802292005A61544BBC
:10066000802292009A61504A4F49554BCB588021C5
:10067000C9031943524BD150524B524A1278D2B24D
:100680001A210A43D2B21A704E4B4E4A5278D2B255
:1006900010210A43D2B25A704A4B73229A70494BC6
:1006A000484A1278D2B240210A43D2B21A700120CD
:1006B000FFF710FF3F4B80229A600A20FFF70AFFE6
:1006C0003C4B80225A603D4B10229A603B4B2022CB
:1006D0009A600520FFF7FEFEAE20FFF737FFD5201A
:1006E000FFF734FF8020FFF731FFA820FFF72EFF30
:1006F0003F20FFF72BFFD320FFF728FF0020FFF755
:1007000025FF4020FFF722FF8D20FFF71FFF142059
:10071000FFF71CFF2020FFF719FF0020FFF716FF4F
:10072000A120FFF713FFC820FFF710FFDA20FFF723
:100730000DFF1220FFF70AFF8120FFF707FFCF20F0
:10074000FFF704FFD920FFF701FFF120FFF7FEFEBE
:10075000DB20FFF7FBFE4020FFF7F8FEA420FFF7A9
:10076000F5FEA620FFF7F2FEAF20FFF7EFFE002018
:10077000FFF7ECFE1020FFF7E9FE4020FFF7E6FE52
:1007800000237B6009E0104A7B68D3181B78181C93
:10079000FFF7F8FE7B6801337B607A680B4B9A4267
:1007A000F1D9BD4602B080BD007004403810000091
:1007B00000B0044080F00F4000C00440C0F00F4083
:1007C000341000000060074000F0FF1FFF0300002E
:1007D00080B500AF00F062F8021C074B1B68D31A0B
:1007E000FA2B07D900F05AF8021C034B1A60034B8E
:1007F0000122DA60BD4680BD00F4FF1F40F00F40CB
:1008000080B500AFBD4680BD80B500AFFFF776FE76
:10081000FFF7D4FEFFF7DCFFFFF7F2FFFAE7C04671
:1008200080B500AF124B124AD278D1B21F220A40D3
:10083000D2B2602149420A43D2B2DA700D4A0D4960
:100840000D4BCB58E0218B43402119430A4BD1502B
:10085000084A0849094BCB58802109011943074B25
:10086000D150074BA822D200DA60BD4680BDC046F9
:1008700000400640007004400410000038100000E2
:1008800000B0044080B500AF034B1B685A1C024BFC
:100890001A60BD4680BDC04604F4FF1F80B500AF9E
:1008A000024B1B68181CBD4680BDC04604F4FF1FE8
:1008B0000000000000000000000000000000000038
:1008C0000000000000000000000000000000000028
:1008D0000000000000000000000000000000000018
:1008E0000000000000000000000000000000008088
:1008F00080800000000000000000000000000000F8
:10090000008080C0C0000000000000000000000067
:1009100000000000000000000000000000000000D7
:1009200000000000000000000000000000000000C7
:1009300000000000000000000000000000000000B7
:100940000000000080C0E0F0F8FCF8E000000000CB
:100950000000000000000000000000000080808017
:10096000808000808000000000808080808000FF08
:10097000FFFF000000008080808000008080000079
:1009800080FFFF80800080800080808080008080E9
:100990000000000000808000008C8E84000080F841
:1009A000F8F88000000000000000000000000000D7
:1009B000F0F0F0F0F0F0F0F0F0F0F0F0E0E0C080F7
:1009C00000E0FCFEFFFFFF7FFFFFFFFFFF000000D6
:1009D0000000000000000000000000FEFFC7010151
:1009E000010183FFFF00007CFEC70101010183FFBD
:1009F000FFFF0038FEC78301010183C7FFFF00002E
:100A000001FFFF010100FFFF0701010100007FFF5F
:100A100080000000FFFF7F0000FFFFFF000001FFDC
:100A2000FFFF0100000000000000000000000000C7
:100A3000030F3F7F7FFFFFFFFFFFFFFFE7C7C78F6A
:100A40008F9FBFFFFFC3C0F0FFFFFFFFFFFCFCFC59
:100A5000FCFCFCFCFCF8F8F0F0E0C0000103030330
:100A6000030301030300000000010303030301016A
:100A7000030100000001030303030101030300005D
:100A80000003030000000303000000000000000159
:100A9000030303030301000000010301000000033E
:100AA0000301000000000000000000000000000042
:100AB00000000080C0E0F0F9FFFFFFFFFF3F1F0FC5
:100AC00087C7F7FFFF1F1F3DFCF8F8F8F87C7DFF94
:100AD000FFFFFFFFFFFFFF7F3F0F070030300000E9
:100AE0000000000000000000000000000000000006
:100AF00000000000FEFEFC000000000000000000FE
:100B000000000000000000000000000000E0C00045
:100B10000000000000000000000030300000000075
:100B200000000000000000000000000000000000C5
:100B300000C0FEFFFFFFFFFFFFFFFFFF7F7F3F1FA4
:100B40000F071F7FFFFFF8F8FFFFFFFFFFFEF8E032
:100B5000000000010000000000000000FEFE000098
:100B600000FCFEFC0C06060EFCF80000F0F81C0E63
:100B70000606060CFFFFFF0000FEFE00000000FC62
:100B8000FEFC00183C7E66E6CE84000006FFFF06F1
:100B900006FCFEFC0C0606060000FEFE0000C0F887
:100BA000FC4E4646464E7C7840183C76E6CECC80DD
:100BB0000000000000000000000000000000000035
:100BC0000000000001070F1F1F3F3F3F3F1F0F03A3
:100BD0000000000000000000000000000F0F0000F7
:100BE000000F0F0F000000000F0F000003070E0C96
:100BF00018180C060F0F0F0000010F0E0C180C0F29
:100C0000070100040E0C180C0F070000000F0F0066
:100C1000000F0F0F0000000000000F0F0000000782
:100C2000070C0C181C0C060600040E0C180C0F0701
:100C300000000000000000000000000000000000B4
:100C400000000000000000000000000000000000A4
:100C50000000000000000000000000000000000094
:100C60000000000000000000000000000000000084
:100C70000000000000000000000000000000000074
:100C80000000000000000000000000000000000064
:100C90000000000000000000000000000000000054
:100CA0000000000000000000000000000000000044
:00000001FF
