:1000000000F4FF1F150500008105000081050000B8
:1000100000000000000000000000000000000000E0
:10002000000000000000000000000000810500004A
:1000300000000000000000008105000079050000BC
:100040001505000015050000150500001505000048
:100050000000000015050000150500001505000052
:100060001505000015050000150500001505000028
:100070001505000015050000150500001505000018
:100080001505000015050000150500001505000008
:100090001505000015050000150500000000000012
:1000A00015050000150500001505000015050000E8
:1000B00015050000000000001505000015050000F2
:10040000FFFFFFFFFFFFFFFFFFFFFFFFFEFFFFFFFD
:1004100080B582B000AF00237B6002E07B680133CF
:100420007B607A68024B9A42F8DDBD4602B080BD1F
:100430001FA1070080B500AF024B0122DA60BD4664
:1004400080BDC04640F00F4080B582B000AF0023B1
:100450007B60134A88235B010021D150104A104968
:10046000104BCB588021C90019430E4BD1500E4B75
:10047000802252001A600D4B01229A600B4B0B4AEE
:10048000526901210A435A617B6801337B60FFF79F
:10049000D1FFFFF7BDFFFFF7CDFFFFF7B9FFF3E790
:1004A000007004403810000000A0044040F00F40ED
:1004B00080B500AF124B124AD278D1B21F220A4047
:1004C000D2B2602149420A43D2B2DA700D4A0D49D4
:1004D0000D4BCB58E0218B43402119430A4BD1509F
:1004E000084A0849094BCB58802109011943074B99
:1004F000D150074BA822D200DA60BD4680BDC0466D
:100500000040064000700440041000003810000055
:1005100000B0044080B582B000AFFFF7C9FF114BB7
:100520007B60114B3B6009E07B681A683B681A608E
:100530003B6804333B607B6804337B603A680B4B59
:100540009A42F1D30A4B3B6005E03B6800221A60F7
:100550003B6804333B603A68064B9A42F5D3FFF799
:1005600073FFFEE78805000000F0FF1F00F0FF1F8B
:1005700000F0FF1F00F0FF1F80B500AFBD4680BD3B
:0805800080B500AFFEE7C046A4
:00000001FF
