:1000000000F4FF1FDD040000410500004105000071
:1000100000000000000000000000000000000000E0
:10002000000000000000000000000000410500008A
:100030000000000000000000410500004105000034
:10004000DD040000DD040000DD040000DD0400002C
:1000500000000000DD040000DD040000DD040000FD
:10006000DD040000DD040000DD040000DD0400000C
:10007000DD040000DD040000DD040000DD040000FC
:10008000DD040000DD040000DD040000DD040000EC
:10009000DD040000DD040000DD04000000000000BD
:1000A000DD040000DD040000DD040000DD040000CC
:1000B000DD04000000000000DD040000DD0400009D
:10040000FFFFFFFFFFFFFFFFFFFFFFFFFEFFFFFFFD
:1004100080B582B000AF00237B6002E07B680133CF
:100420007B607A68024B9A42F8DDBD4602B080BD1F
:100430001FA1070080B500AF024B0122DA60BD4664
:1004400080BDC04640F00F4080B582B000AF0023B1
:100450007B60134A88235B010021D150104A104968
:10046000104BCB588021C90019430E4BD1500E4B75
:10047000802252001A600D4B01229A600B4B0B4AEE
:10048000526901210A435A617B6801337B60FFF79F
:10049000D1FFFFF7BDFFFFF7CDFFFFF7B9FFF3E790
:1004A000007004403810000000A0044040F00F40ED
:1004B00080B582B000AF084BDB78DBB2602293439B
:1004C0007B607B68202213437B60034B7A68D2B247
:1004D000DA70BD4602B080BD0040064080B582B0F3
:1004E00000AFFFF7E5FF114B7B60114B3B6009E06C
:1004F0007B681A683B681A603B6804333B607B6822
:1005000004337B603A680B4B9A42F1D30A4B3B6051
:1005100005E03B6800221A603B6804333B603A68A0
:10052000064B9A42F5D3FFF78FFFFEE74805000020
:1005300000F0FF1F00F0FF1F00F0FF1F00F0FF1F83
:0805400080B500AFFEE7C046E4
:00000001FF
