:1000000040F6FF1FA9040000A5040000A50400009D
:1000100000000000000000000000000000000000E0
:10002000000000000000000000000000A504000027
:100030000000000000000000A5040000A50400006E
:10004000A9040000A9040000A9040000A9040000FC
:1000500000000000A9040000A9040000A904000099
:10006000A9040000A9040000A9040000A9040000DC
:10007000A9040000A9040000A9040000A9040000CC
:10008000A9040000A9040000A9040000A9040000BC
:10009000A9040000A9040000A90400000000000059
:1000A000A9040000A9040000A9040000A90400009C
:1000B000A904000000000000A9040000A904000039
:10040000FFFFFFFFFFFFFFFFFFFFFFFFFEFFFFFFFD
:1004100070B5074C01260125FA20E560400000F088
:1004200001FAFA20E660400000F0FCF9F4E7C0466B
:1004300040F00F407047C046014B0122DA60704720
:1004400040F00F4008B500F0D9F9012003490A2215
:1004500000F0A6F900F0A0F908BDC04611040000A4
:1004600008B588220B4B0021520199500A4A80217D
:100470009858C90001439950084B802252001A60D5
:10048000074B01229A6059690A435A61FFF7DAFF64
:10049000FEE7C046007004403810000000A0044091
:1004A00040F00F4000B5FEE708B51049104B8B42F5
:1004B0000AD2D84340188008013080000D4AC01885
:1004C00002CA02C38342FBD10B4B0C4A934209D2AE
:1004D000D9438918890801318900C918002204C349
:1004E0008B42FCD1FFF7BCFF08BDC04600F0FF1FE8
:1004F00000F0FF1F3008000000F0FF1F40F2FF1F58
:10050000031C30331A0410B51C061443074A1C435D
:1005100041011B02C0011C4310180023C4500433C6
:10052000802BFBD18800101810BDC04600F0FF1FC3
:10053000704700B5002907D08368002B01D0181C34
:10054000FAE7816048608B6000BD836800B5002BCE
:1005500007D09A688260002A00D0506000225A605A
:100560009A60181C00BD00B5806800280CD0884235
:10057000FAD142688368002A00D09360002B00D033
:100580005A6000234360836000BD00B5836800208B
:10059000021C002B08D059698A4201D3111C00E0CB
:1005A000181C9B680A1CF4E700280AD0426883687C
:1005B000002A00D09360002B00D05A6000234360D3
:1005C000836000BD38B50D1C8468A847201EFBD190
:1005D00038BD000000B5044AD1231B01D1580420C6
:1005E0008143D15030BFF6E700E000E010B5036969
:1005F000011C002B0DD1094C201C3030FFF7B3FF3C
:10060000011E08D001230373201C1030FFF791FF57
:1006100001E0013B0361002010BDC04680F1FF1FD7
:1006200010B5144CE36D002B06D0201C0023303095
:100630001149E365FFF7C6FFE168002911D00B7B84
:10064000012B05D0002B02D0022B04D008E0FEE7DE
:10065000201C103001E0201C3030FFF76AFF00E062
:10066000FEE7201C1030FFF770FF002800D0E0608C
:1006700010BDC04680F1FF1FED050000114B124870
:100680009A6D00B50132824201D89A6504E00022D9
:100690009A655A6D01325A65DA68D1690131814231
:1006A00001D8D16104E00021D161916901319161EA
:1006B0000122DA65054A064B8021D05849050143DD
:1006C000D15000BD80F1FF1FE703000000E000E013
:1006D000040D0000EFF30982203AF0C244464D4673
:1006E00056465F46F0C2203A0B49C868026000B522
:1006F000FFF796FF01BC86460749C86802681032BA
:10070000F0CAA046A946B246BB46203AF0CA10320B
:1007100082F309887047C04680F1FF1F1A4A506073
:10072000194A916070460421084202D0EFF3098112
:1007300001E0EFF308818A69023A1078124A1060EA
:1007400080B484B06F46114B1A78012A12D0002A67
:100750000BD0802A15D10C49C868026882F3098839
:10076000042170460843864604E0DA685B6802218B
:1007700011731361064A074B8021D0584905014384
:10078000D15004B080BC704780F1FF1F80F1FF1F83
:1007900000E000E0040D000000B580DFC046FEE789
:1007A000F8B5154D43012C1C6034E418171C0E1CC1
:1007B000FFF7A6FE031C40332360012200232273AF
:1007C0006360A36067610366436780235B04C3675C
:1007D0002B6D4266022282668667002B03D1603051
:1007E0002060EC6004E0281C1030211CFFF7A1FE03
:1007F0002B6D01332B65F8BD80F1FF1F10B5074C41
:10080000201C1030FFF794FE201C3030FFF790FEC4
:10081000002003490122FFF7C3FF10BD80F1FF1F35
:10082000D505000000DFC046704701DFC0467047B5
:00000001FF
