:1000000008F4FF1F51040000CD040000CD040000DF
:1000100000000000000000000000000000000000E0
:10002000000000000000000000000000CD040000FF
:100030000000000000000000CD040000C10400002A
:10004000CD040000CD040000CD040000CD0400006C
:1000500000000000CD040000CD040000CD0400002D
:10006000CD040000CD040000CD040000CD0400004C
:10007000CD040000CD040000CD040000CD0400003C
:10008000CD040000CD040000CD040000CD0400002C
:10009000CD040000CD040000CD04000000000000ED
:1000A000CD040000CD040000CD040000CD0400000C
:1000B000CD04000000000000CD040000CD040000CD
:10040000FFFFFFFFFFFFFFFFFFFFFFFFFEFFFFFFFD
:1004100080B582B000AF78607A680B4B9A4201D900
:1004200001230CE0094B7A681202120A013A5A6061
:10043000064B00229A60054B07221A600023181C05
:10044000BD4602B080BDC046FFFFFF0010E000E0E7
:1004500080B582B000AF00F099F8134B7B60134B6E
:100460003B6009E07B681A683B681A603B680433AC
:100470003B607B6804337B603A680D4B9A42F1D352
:100480000C4B3B6005E03B6800221A603B6804337C
:100490003B603A68084B9A42F5D3084B181CFFF7AB
:1004A000B7FF00F06BF8FEE71C06000000F0FF1F2E
:1004B00000F0FF1F00F0FF1F08F0FF1F80BB0000CF
:1004C00080B500AF00F094F8BD4680BD80B500AFA8
:1004D000FEE7C04680B584B000AF786000F094F8C5
:1004E000031CFB60C04600F08FF8021CFB68D21AA8
:1004F0007B689A42F7D3BD4604B080BD80B500AF9B
:100500000E4A88235B010021D1500C4A0B490C4B49
:10051000CB588021C9001943094BD150094B802287
:1005200052001A60084B01229A60074B064A526932
:1005300001210A435A61BD4680BDC0460070044097
:100540003810000000A0044040F00F4080B500AF1C
:1005500000F05AF8021C074B1B68D31AFA2B07D974
:1005600000F052F8021C034B1A60034B0122DA60C0
:10057000BD4680BD00F0FF1F40F00F4080B500AFCA
:10058000FFF7BCFFFFF7E2FFFCE7C04680B500AF16
:10059000124B124AD278D1B21F220A40D2B2602145
:1005A00049420A43D2B2DA700D4A0D490D4BCB587D
:1005B000E0218B43402119430A4BD150084A084996
:1005C000094BCB58802109011943074BD150074BE8
:1005D000A822D200DA60BD4680BDC0460040064079
:1005E00000700440041000003810000000B0044007
:1005F00080B500AF034B1B685A1C024B1A60BD4606
:1006000080BDC04604F0FF1F80B500AF024B1B68E1
:0C061000181CBD4680BDC04604F0FF1F52
:00000001FF
