:1000000000F4FF1FB10400001505000015050000F5
:1000100000000000000000000000000000000000E0
:1000200000000000000000000000000015050000B6
:10003000000000000000000015050000150500008C
:10004000B1040000B1040000B1040000B1040000DC
:1000500000000000B1040000B1040000B104000081
:10006000B1040000B1040000B1040000B1040000BC
:10007000B1040000B1040000B1040000B1040000AC
:10008000B1040000B1040000B1040000B10400009C
:10009000B1040000B1040000B10400000000000041
:1000A000B1040000B1040000B1040000B10400007C
:1000B000B104000000000000B1040000B104000021
:10040000FFFFFFFFFFFFFFFFFFFFFFFFFEFFFFFFFD
:1004100080B582B000AF00237B6002E07B680133CF
:100420007B607A68024B9A42F8DDBD4602B080BD1F
:100430001FA1070080B500AF024B0122DA60BD4664
:1004400080BDC04640F00F4080B582B000AF0023B1
:100450007B60134A88235B010021D150104A104968
:10046000104BCB588021C90019430E4BD1500E4B75
:10047000802252001A600D4B01229A600B4B0B4AEE
:10048000526901210A435A617B6801337B60FFF79F
:10049000D1FFFFF7BDFFFFF7CDFFFFF7B9FFF3E790
:1004A000007004403810000000A0044040F00F40ED
:1004B00080B582B000AF124B7B60124B3B6009E00D
:1004C0007B681A683B681A603B6804333B607B6852
:1004D00004337B603A680C4B9A42F1D30B4B3B6080
:1004E00005E03B6800221A603B6804333B603A68D1
:1004F000074B9A42F5D3FFF7A7FFBD4602B080BD78
:100500001C05000000F0FF1F00F0FF1F00F0FF1FA0
:0C05100000F0FF1F80B500AFFEE7C04602
:00000001FF
