:1000000010F4FF1F51040000CD040000CD040000D7
:1000100000000000000000000000000000000000E0
:10002000000000000000000000000000CD040000FF
:100030000000000000000000CD040000C10400002A
:10004000CD040000CD040000CD040000CD0400006C
:1000500000000000CD040000CD040000CD0400002D
:10006000CD040000CD040000CD040000CD0400004C
:10007000CD040000CD040000CD040000CD0400003C
:10008000CD040000CD040000CD040000CD0400002C
:10009000CD040000CD040000CD04000000000000ED
:1000A000CD040000CD040000CD040000CD0400000C
:1000B000CD04000000000000CD040000CD040000CD
:10040000FFFFFFFFFFFFFFFFFFFFFFFFFEFFFFFFFD
:1004100080B582B000AF78607A680B4B9A4201D900
:1004200001230CE0094B7A681202120A013A5A6061
:10043000064B00229A60054B07221A600023181C05
:10044000BD4602B080BDC046FFFFFF0010E000E0E7
:1004500080B582B000AF00F0B9F9134B7B60134B4D
:100460003B6009E07B681A683B681A603B680433AC
:100470003B607B6804337B603A680D4B9A42F1D352
:100480000C4B3B6005E03B6800221A603B6804337C
:100490003B603A68084B9A42F5D3084B181CFFF7AB
:1004A000B7FF00F087F9FEE75C08000000F0FF1FCF
:1004B00000F0FF1F00F0FF1F0CF0FF1F80BB0000CB
:1004C00080B500AF00F0B4F9BD4680BD80B500AF87
:1004D000FEE7C04680B584B000AF786000F0B4F9A4
:1004E000031CFB60C04600F0AFF9021CFB68D21A87
:1004F0007B689A42F7D3BD4604B080BD80B500AF9B
:100500000E4A88235B010021D1500C4A0B490C4B49
:10051000CB588021C9001943094BD150094B802287
:1005200052001A60084B01229A60074B064A526932
:1005300001210A435A61BD4680BDC0460070044097
:100540003810000000A0044040F00F4080B582B099
:1005500000AF021CFB1D1A70C046084BDB78DBB2F3
:100560001A1C20231340F8D0054B40229A60034BFD
:10057000FA1D12785A71BD4602B080BD0060074076
:10058000C0F00F4080B500AF6A4A6A496A4BCB5849
:10059000802149011943684BD150684B8022520099
:1005A000DA61674B80229A60654B654A5269802107
:1005B0000A435A61634B802252001A61624B102237
:1005C0009A60614B604A526910210A435A615D4B3F
:1005D000802252005A615C4B20229A605A4B5A4A40
:1005E000526920210A435A61564B802252009A6177
:1005F000554B40229A60544B534A526940210A435A
:100600005A614C4A4B494C4BCB5880210901194344
:10061000494BD150494B802292001A61474B8022AE
:1006200092005A61454B802292009A61434B80228E
:100630009200DA613F4A3F49444BCB588021C903BD
:100640001943424BD150424B414A1278D2B2122147
:100650000A43D2B21A703E4B3D4A5278D2B21021B0
:100660000A43D2B25A703A4B73229A70384B384AC6
:100670001278D2B240210A43D2B21A700120FFF799
:1006800029FF2F4B80229A600A20FFF723FF2C4B73
:1006900080225A602C4B10229A602B4B20229A60A9
:1006A000AE20FFF753FFD520FFF750FF8020FFF764
:1006B0004DFFA820FFF74AFF3F20FFF747FFD32059
:1006C000FFF744FF0020FFF741FF4020FFF73EFF08
:1006D0008D20FFF73BFF1420FFF738FF2020FFF7A6
:1006E00035FF0020FFF732FFA120FFF72FFFC820C2
:1006F000FFF72CFFDA20FFF729FF1220FFF726FF74
:100700008120FFF723FFCF20FFF720FFD920FFF73D
:100710001DFFF120FFF71AFFDB20FFF717FF402036
:10072000FFF714FFA420FFF711FFA620FFF70EFF2D
:10073000BD4680BD007004403810000000B0044089
:1007400080F00F4000C00440C0F00F4034100000A3
:100750000060074080B500AF00F076F8021C074B40
:100760001B68D31AFA2B07D900F06EF8021C034B52
:100770001A60034B0122DA60BD4680BD04F0FF1F02
:1007800040F00F4080B500AF00F05EF8021C074B50
:100790001B68D31A052B06D900F056F8021C034B30
:1007A0001A60034BDB78BD4680BDC04600F0FF1FDA
:1007B0000060074080B500AFFFF7A0FEFFF7E2FE44
:1007C000FFF7C8FFFFF7DEFFFAE7C04680B500AFCE
:1007D000124B124AD278D1B21F220A40D2B2602103
:1007E00049420A43D2B2DA700D4A0D490D4BCB583B
:1007F000E0218B43402119430A4BD150084A084954
:10080000094BCB58802109011943074BD150074BA5
:10081000A822D200DA60BD4680BDC0460040064036
:1008200000700440041000003810000000B00440C4
:1008300080B500AF034B1B685A1C024B1A60BD46C3
:1008400080BDC04608F0FF1F80B500AF024B1B689B
:0C085000181CBD4680BDC04608F0FF1F0C
:00000001FF
