:1000000010F4FF1F51040000CD040000CD040000D7
:1000100000000000000000000000000000000000E0
:10002000000000000000000000000000CD040000FF
:100030000000000000000000CD040000C10400002A
:10004000CD040000CD040000CD040000CD0400006C
:1000500000000000CD040000CD040000CD0400002D
:10006000CD040000CD040000CD040000CD0400004C
:10007000CD040000CD040000CD040000CD0400003C
:10008000CD040000CD040000CD040000CD0400002C
:10009000CD040000CD040000CD04000000000000ED
:1000A000CD040000CD040000CD040000CD0400000C
:1000B000CD04000000000000CD040000CD040000CD
:10040000FFFFFFFFFFFFFFFFFFFFFFFFFEFFFFFFFD
:1004100080B582B000AF78607A680B4B9A4201D900
:1004200001230CE0094B7A681202120A013A5A6061
:10043000064B00229A60054B07221A600023181C05
:10044000BD4602B080BDC046FFFFFF0010E000E0E7
:1004500080B582B000AF00F0F5F8134B7B60134B12
:100460003B6009E07B681A683B681A603B680433AC
:100470003B607B6804337B603A680D4B9A42F1D352
:100480000C4B3B6005E03B6800221A603B6804337C
:100490003B603A68084B9A42F5D3084B181CFFF7AB
:1004A000B7FF00F0C3F8FEE7D406000000F0FF1F1E
:1004B00000F0FF1F00F0FF1F0CF0FF1F80BB0000CB
:1004C00080B500AF00F0F0F8BD4680BD80B500AF4C
:1004D000FEE7C04680B500AF0E4A88235B010021CD
:1004E000D1500C4A0B490C4BCB588021C900194301
:1004F000094BD150094B802252001A60084B01224F
:100500009A60074B064A526901210A435A61BD4667
:1005100080BDC046007004403810000000A00440B8
:1005200040F00F4080B500AF1F4A1F491F4BCB580A
:100530008021090119431D4BD1501D4B802292008F
:100540001A611B4B802292005A61194B8022920043
:100550009A61174B80229200DA61134A1249154BB7
:10056000CB588021C9031943124BD150124B124A68
:100570001278D2B212210A43D2B21A700E4B0E4A2E
:100580005278D2B210210A43D2B25A700A4B712269
:100590009A70094B084A1278D2B240210A43D2B26B
:1005A0001A70BD4680BDC04600700440381000007F
:1005B00000B00440341000000060074080B500AF78
:1005C00000F07EF8021C074B1B68D31AFA2B07D9E0
:1005D00000F076F8021C034B1A60034B0122DA602C
:1005E000BD4680BD04F0FF1F40F00F4080B500AF56
:1005F00000F066F8021C0B4B1B68D31A052B0ED9B2
:1006000000F05EF8021C074B1A60074BDB78DBB288
:100610001A1C2023134002D0034BA5225A71BD4659
:1006200080BDC04600F0FF1F0060074080B500AFEE
:10063000FFF750FFFFF776FFFFF7C0FFFFF7D6FF8A
:10064000FAE7C04680B500AF124B124AD278D1B259
:100650001F220A40D2B2602149420A43D2B2DA7064
:100660000D4A0D490D4BCB58E0218B4340211943D6
:100670000A4BD150084A0849094BCB58802109013F
:100680001943074BD150074BA822D200DA60BD4670
:1006900080BDC046004006400070044004100000C9
:1006A0003810000000B0044080B500AF034B1B6859
:1006B0005A1C024B1A60BD4680BDC04608F0FF1FA1
:1006C00080B500AF024B1B68181CBD4680BDC046FC
:0406D00008F0FF1F10
:00000001FF
