:1000000040F6FF1FF10400005505000055050000F3
:1000100000000000000000000000000000000000E0
:100020000000000000000000000000005505000076
:10003000000000000000000055050000550500000C
:10004000F1040000F1040000F1040000F1040000DC
:1000500000000000F1040000F1040000F1040000C1
:10006000F1040000F1040000F1040000F1040000BC
:10007000F1040000F1040000F1040000F1040000AC
:10008000F1040000F1040000F1040000F10400009C
:10009000F1040000F1040000F10400000000000081
:1000A000F1040000F1040000F1040000F10400007C
:1000B000F104000000000000F1040000F104000061
:10040000FFFFFFFFFFFFFFFFFFFFFFFFFEFFFFFFFD
:1004100080B582B000AF00237B6002E07B680133CF
:100420007B607A68024B9A42F8DDBD4602B080BD1F
:100430001FA1070080B500AF024B0122DA60BD4664
:1004400080BDC04640F00F4080B582B000AF0023B1
:100450007B607B6801337B60FFF7ECFFFFF7D8FF21
:10046000FA235B00181C00F049FBFFF7E3FFFFF7DE
:10047000CFFFFA235B00181C00F040FBE9E7C04601
:1004800080B500AF00F0C0FA044B0120191C0A220D
:1004900000F0D8FA00F0D0FABD4680BD4904000053
:1004A00080B500AF0E4A88235B010021D1500C4A71
:1004B0000B490C4BCB588021C9001943094BD15033
:1004C000094B802252001A60084B01229A60074BA8
:1004D000064A526901210A435A61FFF7D1FFFEE73C
:1004E000007004403810000000A0044040F00F40AD
:1004F00080B582B000AF124B7B60124B3B6009E0CD
:100500007B681A683B681A603B6804333B607B6811
:1005100004337B603A680C4B9A42F1D30B4B3B603F
:1005200005E03B6800221A603B6804333B603A6890
:10053000074B9A42F5D3FFF7B3FFBD4602B080BD2B
:100540001C0B000000F0FF1F00F0FF1F00F0FF1F5A
:1005500040F2FF1F80B500AFFEE7C04680B584B013
:1005600000AF78607B685B01BB600023FB6016E036
:10057000BA68FB68D2187B68303319067B68303361
:100580001B0419437B6830331B0219437B683033EB
:100590001943084B9200D150FB680133FB60FB68A4
:1005A0001F2BE5DDBB689A00024BD318181CBD4613
:1005B00004B080BD00F0FF1F80B582B000AF78604E
:1005C000BD4602B080BDC04680B584B000AF786043
:1005D00039607B68BB60BB68FB603B68002B04D163
:1005E00011E0FB689B68FB6000E0C046FB689B680D
:1005F000002BF6D1FB683A689A603B68FA685A604B
:100600003B6800229A60BD4604B080BD80B586B0CC
:1006100000AF78607B687B617B699B683B613B696D
:10062000002B02D03B699B6800E00023FB603B6924
:10063000002B01D100230FE07B69FA689A60FB6808
:10064000002B02D0FB687A695A603B6900225A602D
:100650003B6900229A603B69181CBD4606B080BD0C
:1006600080B586B000AF786039607B689B687B613D
:1006700022E07A693B689A421BD17B695B683B61E7
:100680007B699B68FB603B69002B03D07B699A68A0
:100690003B699A60FB68002B03D07B695A68FB6852
:1006A0005A607B6900225A607B6900229A607B69EC
:1006B00006E07B699B687B617B69002BD9D10023B5
:1006C000181CBD4606B080BD80B588B000AF78600C
:1006D0000023FB610023BB617B689B687B610CE0AE
:1006E0007B695A69FB699A4204D97B695B69FB6142
:1006F0007B69BB617B699B687B617B69002BEFD168
:10070000BB69002B1BD0BB695B683B61BB699B6805
:10071000FB603B69002B03D0BB699A683B699A6018
:10072000FB68002B03D0BB695A68FB685A60BB6941
:1007300000225A60BB6900229A60BB6900E0002376
:10074000181CBD4608B080BD80B584B000AF78608D
:1007500039607B68FB60FB689B68BB60FA683B683C
:10076000101C9847BB68FB60FB68002BF3D1BD46AB
:1007700004B080BD80B584B000AF78607B681B6931
:10078000002B14D10F4A7B68101C191CFFF768FF5F
:10079000031CFB60FB68002B0ED0FB6801221A7360
:1007A000094AFB68101C191CFFF70EFF04E07B6868
:1007B0001B695A1E7B681A610023181CBD4604B0D1
:1007C00080BDC046B0F1FF1F90F1FF1F80B500AFA4
:1007D000034A044B101C191CFFF7B6FFBD4680BD31
:1007E000B0F1FF1F7507000080B582B000AF1C4B51
:1007F000DB6D002B04D01A4B0022DA65FFF7E6FF11
:10080000174BDB68002B1BD0154BDB681B7B012BC8
:1008100005D0022B0BD0002B00D010E0FEE7104BD0
:10082000DB68104A101C191CFFF7CEFE08E00C4BC9
:10083000DB680D4A101C191CFFF7C6FE00E0FEE73E
:10084000084B181CFFF7E2FE031C7B607B68002B43
:1008500002D0034B7A68DA60BD4602B080BDC04664
:1008600080F1FF1F90F1FF1FB0F1FF1F80B500AFB7
:10087000194B9B6D5A1C184B9A65174B9A6D174B69
:100880009A4207D9144B00229A65134B5B6D5A1C90
:10089000114B5A65104BDB68DA690132DA610E4B95
:1008A000DB68DA690D4B9A4208D90B4BDB680022F2
:1008B000DA61094BDB689A6901329A61064B0122C1
:1008C000DA65074A0649074BCB5880214905194389
:1008D000044BD150BD4680BD80F1FF1FE7030000EF
:1008E00000E000E0040D0000EFF30982203AF0C2BE
:1008F00044464D4656465F46F0C2203A0B49C8680A
:10090000026000B5FFF770FF01BC86460749C86862
:1009100002681032F0CAA046A946B246BB46203A49
:10092000F0CA103282F309887047C04680F1FF1F79
:10093000284A5060274A916070460421084202D03C
:10094000EFF3098101E0EFF308818A69023A107838
:10095000204A106080B484B06F461F4B1A68FF2392
:100960001340012B28D014D3802B2FD11949C868EC
:10097000026882F309880421704608438646174AB4
:100980001649174BCB58802149051943144BD150B8
:100990001DE0114BDB6802221A730F4BDB680E4A15
:1009A00052681A610D4A0D490D4BCB5880214905FB
:1009B00019430B4BD1500AE0084A0849084BCB5861
:1009C000802149051943064BD15000E0C04604B0D0
:1009D00080BC704780F1FF1F80F1FF1F00E000E046
:1009E000040D000080B500AF064A0649D1231B0163
:1009F000CB580421181C8843011CD1231B01D15062
:100A000030BFF1E700E000E080B500AF074B181CF5
:100A1000FFF7D2FD064B181CFFF7CEFD054B00205B
:100A2000191C012200F00EF8BD4680BD90F1FF1F99
:100A3000B0F1FF1FE509000080B500AF80DFC046C0
:100A4000FEE7C04680B586B000AFF860B9607A6056
:100A5000FB685A01264BD3187B61FB68181CFFF713
:100A60007DFD021C7B691A607B691B681A1C403281
:100A70007B691A607B6901221A737B6900225A60C4
:100A80007B6900229A607B697A685A617B691B687E
:100A90003B613B6900221A623B6901225A623B6951
:100AA00002229A623B6900225A63BA683B699A63E0
:100AB0003B6980225204DA630E4B1B6D002B09D177
:100AC0007B691B681A1C20327B691A60094B7A69A2
:100AD000DA6005E0084A7B69101C191CFFF774FDF9
:100AE000044B1B6D5A1C034B1A65BD4606B080BDF6
:100AF000E0F1FF1F80F1FF1F90F1FF1F80B582B072
:100B000000AF7860786800DFC046BD4602B080BDA7
:0C0B100080B500AF01DFC046BD4680BDCF
:00000001FF
