:1000000000F4FF1FA5040000090500000905000019
:1000100000000000000000000000000000000000E0
:1000200000000000000000000000000009050000C2
:1000300000000000000000000905000009050000A4
:10004000A5040000A5040000A5040000A50400000C
:1000500000000000A5040000A5040000A5040000A5
:10006000A5040000A5040000A5040000A5040000EC
:10007000A5040000A5040000A5040000A5040000DC
:10008000A5040000A5040000A5040000A5040000CC
:10009000A5040000A5040000A50400000000000065
:1000A000A5040000A5040000A5040000A5040000AC
:1000B000A504000000000000A5040000A504000045
:1004100080B582B000AF00237B6002E07B680133CF
:100420007B607A68024B9A42F8DDBD4602B080BD1F
:100430003F420F0080B500AF024B0122DA60BD469B
:1004400080BDC04640F00F4080B500AF114A882300
:100450005B010021D1500F4A0E490F4BCB58802130
:10046000C90019430C4BD1500C4B802252001A602A
:100470000B4B01229A600A4B094A526901210A4337
:100480005A61FFF7D7FFFFF7C3FFFFF7D3FFFFF76F
:10049000BFFFF6E7007004403810000000A00440E1
:1004A00040F00F4080B582B000AF124B7B60124B22
:1004B0003B6009E07B681A683B681A603B6804335C
:1004C0003B607B6804337B603A680C4B9A42F1D303
:1004D0000B4B3B6005E03B6800221A603B6804332D
:1004E0003B603A68074B9A42F5D3FFF7ADFFBD4634
:1004F00002B080BD1005000000F0FF1F00F0FF1FDC
:1005000000F0FF1F00F0FF1F80B500AFFEE7C04600
:00000001FF
